{
  "_format": "hh-sol-artifact-1",
  "contractName": "VerifiableCredential",
  "sourceName": "contracts/VerifiableCredential.sol",
  "abi": [
    {
      "inputs": [],
      "stateMutability": "nonpayable",
      "type": "constructor"
    },
    {
      "inputs": [],
      "name": "AccessControlBadConfirmation",
      "type": "error"
    },
    {
      "inputs": [
        {
          "internalType": "address",
          "name": "account",
          "type": "address"
        },
        {
          "internalType": "bytes32",
          "name": "neededRole",
          "type": "bytes32"
        }
      ],
      "name": "AccessControlUnauthorizedAccount",
      "type": "error"
    },
    {
      "inputs": [
        {
          "internalType": "address",
          "name": "sender",
          "type": "address"
        },
        {
          "internalType": "uint256",
          "name": "tokenId",
          "type": "uint256"
        },
        {
          "internalType": "address",
          "name": "owner",
          "type": "address"
        }
      ],
      "name": "ERC721IncorrectOwner",
      "type": "error"
    },
    {
      "inputs": [
        {
          "internalType": "address",
          "name": "operator",
          "type": "address"
        },
        {
          "internalType": "uint256",
          "name": "tokenId",
          "type": "uint256"
        }
      ],
      "name": "ERC721InsufficientApproval",
      "type": "error"
    },
    {
      "inputs": [
        {
          "internalType": "address",
          "name": "approver",
          "type": "address"
        }
      ],
      "name": "ERC721InvalidApprover",
      "type": "error"
    },
    {
      "inputs": [
        {
          "internalType": "address",
          "name": "operator",
          "type": "address"
        }
      ],
      "name": "ERC721InvalidOperator",
      "type": "error"
    },
    {
      "inputs": [
        {
          "internalType": "address",
          "name": "owner",
          "type": "address"
        }
      ],
      "name": "ERC721InvalidOwner",
      "type": "error"
    },
    {
      "inputs": [
        {
          "internalType": "address",
          "name": "receiver",
          "type": "address"
        }
      ],
      "name": "ERC721InvalidReceiver",
      "type": "error"
    },
    {
      "inputs": [
        {
          "internalType": "address",
          "name": "sender",
          "type": "address"
        }
      ],
      "name": "ERC721InvalidSender",
      "type": "error"
    },
    {
      "inputs": [
        {
          "internalType": "uint256",
          "name": "tokenId",
          "type": "uint256"
        }
      ],
      "name": "ERC721NonexistentToken",
      "type": "error"
    },
    {
      "anonymous": false,
      "inputs": [
        {
          "indexed": true,
          "internalType": "address",
          "name": "owner",
          "type": "address"
        },
        {
          "indexed": true,
          "internalType": "address",
          "name": "approved",
          "type": "address"
        },
        {
          "indexed": true,
          "internalType": "uint256",
          "name": "tokenId",
          "type": "uint256"
        }
      ],
      "name": "Approval",
      "type": "event"
    },
    {
      "anonymous": false,
      "inputs": [
        {
          "indexed": true,
          "internalType": "address",
          "name": "owner",
          "type": "address"
        },
        {
          "indexed": true,
          "internalType": "address",
          "name": "operator",
          "type": "address"
        },
        {
          "indexed": false,
          "internalType": "bool",
          "name": "approved",
          "type": "bool"
        }
      ],
      "name": "ApprovalForAll",
      "type": "event"
    },
    {
      "anonymous": false,
      "inputs": [
        {
          "indexed": false,
          "internalType": "uint256",
          "name": "_fromTokenId",
          "type": "uint256"
        },
        {
          "indexed": false,
          "internalType": "uint256",
          "name": "_toTokenId",
          "type": "uint256"
        }
      ],
      "name": "BatchMetadataUpdate",
      "type": "event"
    },
    {
      "anonymous": false,
      "inputs": [
        {
          "indexed": true,
          "internalType": "uint256",
          "name": "tokenId",
          "type": "uint256"
        },
        {
          "indexed": true,
          "internalType": "address",
          "name": "to",
          "type": "address"
        },
        {
          "indexed": false,
          "internalType": "string",
          "name": "tokenURI",
          "type": "string"
        }
      ],
      "name": "CredentialIssued",
      "type": "event"
    },
    {
      "anonymous": false,
      "inputs": [
        {
          "indexed": true,
          "internalType": "uint256",
          "name": "tokenId",
          "type": "uint256"
        }
      ],
      "name": "CredentialRevoked",
      "type": "event"
    },
    {
      "anonymous": false,
      "inputs": [
        {
          "indexed": false,
          "internalType": "uint256",
          "name": "_tokenId",
          "type": "uint256"
        }
      ],
      "name": "MetadataUpdate",
      "type": "event"
    },
    {
      "anonymous": false,
      "inputs": [
        {
          "indexed": true,
          "internalType": "bytes32",
          "name": "role",
          "type": "bytes32"
        },
        {
          "indexed": true,
          "internalType": "bytes32",
          "name": "previousAdminRole",
          "type": "bytes32"
        },
        {
          "indexed": true,
          "internalType": "bytes32",
          "name": "newAdminRole",
          "type": "bytes32"
        }
      ],
      "name": "RoleAdminChanged",
      "type": "event"
    },
    {
      "anonymous": false,
      "inputs": [
        {
          "indexed": true,
          "internalType": "bytes32",
          "name": "role",
          "type": "bytes32"
        },
        {
          "indexed": true,
          "internalType": "address",
          "name": "account",
          "type": "address"
        },
        {
          "indexed": true,
          "internalType": "address",
          "name": "sender",
          "type": "address"
        }
      ],
      "name": "RoleGranted",
      "type": "event"
    },
    {
      "anonymous": false,
      "inputs": [
        {
          "indexed": true,
          "internalType": "bytes32",
          "name": "role",
          "type": "bytes32"
        },
        {
          "indexed": true,
          "internalType": "address",
          "name": "account",
          "type": "address"
        },
        {
          "indexed": true,
          "internalType": "address",
          "name": "sender",
          "type": "address"
        }
      ],
      "name": "RoleRevoked",
      "type": "event"
    },
    {
      "anonymous": false,
      "inputs": [
        {
          "indexed": true,
          "internalType": "address",
          "name": "from",
          "type": "address"
        },
        {
          "indexed": true,
          "internalType": "address",
          "name": "to",
          "type": "address"
        },
        {
          "indexed": true,
          "internalType": "uint256",
          "name": "tokenId",
          "type": "uint256"
        }
      ],
      "name": "Transfer",
      "type": "event"
    },
    {
      "inputs": [],
      "name": "DEFAULT_ADMIN_ROLE",
      "outputs": [
        {
          "internalType": "bytes32",
          "name": "",
          "type": "bytes32"
        }
      ],
      "stateMutability": "view",
      "type": "function"
    },
    {
      "inputs": [],
      "name": "MINTER_ROLE",
      "outputs": [
        {
          "internalType": "bytes32",
          "name": "",
          "type": "bytes32"
        }
      ],
      "stateMutability": "view",
      "type": "function"
    },
    {
      "inputs": [
        {
          "internalType": "address",
          "name": "to",
          "type": "address"
        },
        {
          "internalType": "uint256",
          "name": "tokenId",
          "type": "uint256"
        }
      ],
      "name": "approve",
      "outputs": [],
      "stateMutability": "nonpayable",
      "type": "function"
    },
    {
      "inputs": [
        {
          "internalType": "address",
          "name": "owner",
          "type": "address"
        }
      ],
      "name": "balanceOf",
      "outputs": [
        {
          "internalType": "uint256",
          "name": "",
          "type": "uint256"
        }
      ],
      "stateMutability": "view",
      "type": "function"
    },
    {
      "inputs": [
        {
          "internalType": "uint256",
          "name": "tokenId",
          "type": "uint256"
        }
      ],
      "name": "getApproved",
      "outputs": [
        {
          "internalType": "address",
          "name": "",
          "type": "address"
        }
      ],
      "stateMutability": "view",
      "type": "function"
    },
    {
      "inputs": [],
      "name": "getNextTokenId",
      "outputs": [
        {
          "internalType": "uint256",
          "name": "",
          "type": "uint256"
        }
      ],
      "stateMutability": "view",
      "type": "function"
    },
    {
      "inputs": [
        {
          "internalType": "bytes32",
          "name": "role",
          "type": "bytes32"
        }
      ],
      "name": "getRoleAdmin",
      "outputs": [
        {
          "internalType": "bytes32",
          "name": "",
          "type": "bytes32"
        }
      ],
      "stateMutability": "view",
      "type": "function"
    },
    {
      "inputs": [
        {
          "internalType": "bytes32",
          "name": "role",
          "type": "bytes32"
        },
        {
          "internalType": "address",
          "name": "account",
          "type": "address"
        }
      ],
      "name": "grantRole",
      "outputs": [],
      "stateMutability": "nonpayable",
      "type": "function"
    },
    {
      "inputs": [
        {
          "internalType": "bytes32",
          "name": "role",
          "type": "bytes32"
        },
        {
          "internalType": "address",
          "name": "account",
          "type": "address"
        }
      ],
      "name": "hasRole",
      "outputs": [
        {
          "internalType": "bool",
          "name": "",
          "type": "bool"
        }
      ],
      "stateMutability": "view",
      "type": "function"
    },
    {
      "inputs": [
        {
          "internalType": "address",
          "name": "owner",
          "type": "address"
        },
        {
          "internalType": "address",
          "name": "operator",
          "type": "address"
        }
      ],
      "name": "isApprovedForAll",
      "outputs": [
        {
          "internalType": "bool",
          "name": "",
          "type": "bool"
        }
      ],
      "stateMutability": "view",
      "type": "function"
    },
    {
      "inputs": [
        {
          "internalType": "uint256",
          "name": "tokenId",
          "type": "uint256"
        }
      ],
      "name": "isRevoked",
      "outputs": [
        {
          "internalType": "bool",
          "name": "",
          "type": "bool"
        }
      ],
      "stateMutability": "view",
      "type": "function"
    },
    {
      "inputs": [
        {
          "internalType": "address",
          "name": "to",
          "type": "address"
        },
        {
          "internalType": "string",
          "name": "_tokenURI",
          "type": "string"
        }
      ],
      "name": "issueCredential",
      "outputs": [],
      "stateMutability": "nonpayable",
      "type": "function"
    },
    {
      "inputs": [],
      "name": "name",
      "outputs": [
        {
          "internalType": "string",
          "name": "",
          "type": "string"
        }
      ],
      "stateMutability": "view",
      "type": "function"
    },
    {
      "inputs": [
        {
          "internalType": "uint256",
          "name": "tokenId",
          "type": "uint256"
        }
      ],
      "name": "ownerOf",
      "outputs": [
        {
          "internalType": "address",
          "name": "",
          "type": "address"
        }
      ],
      "stateMutability": "view",
      "type": "function"
    },
    {
      "inputs": [
        {
          "internalType": "bytes32",
          "name": "role",
          "type": "bytes32"
        },
        {
          "internalType": "address",
          "name": "callerConfirmation",
          "type": "address"
        }
      ],
      "name": "renounceRole",
      "outputs": [],
      "stateMutability": "nonpayable",
      "type": "function"
    },
    {
      "inputs": [
        {
          "internalType": "uint256",
          "name": "tokenId",
          "type": "uint256"
        }
      ],
      "name": "revoke",
      "outputs": [],
      "stateMutability": "nonpayable",
      "type": "function"
    },
    {
      "inputs": [
        {
          "internalType": "bytes32",
          "name": "role",
          "type": "bytes32"
        },
        {
          "internalType": "address",
          "name": "account",
          "type": "address"
        }
      ],
      "name": "revokeRole",
      "outputs": [],
      "stateMutability": "nonpayable",
      "type": "function"
    },
    {
      "inputs": [
        {
          "internalType": "address",
          "name": "from",
          "type": "address"
        },
        {
          "internalType": "address",
          "name": "to",
          "type": "address"
        },
        {
          "internalType": "uint256",
          "name": "tokenId",
          "type": "uint256"
        }
      ],
      "name": "safeTransferFrom",
      "outputs": [],
      "stateMutability": "nonpayable",
      "type": "function"
    },
    {
      "inputs": [
        {
          "internalType": "address",
          "name": "from",
          "type": "address"
        },
        {
          "internalType": "address",
          "name": "to",
          "type": "address"
        },
        {
          "internalType": "uint256",
          "name": "tokenId",
          "type": "uint256"
        },
        {
          "internalType": "bytes",
          "name": "data",
          "type": "bytes"
        }
      ],
      "name": "safeTransferFrom",
      "outputs": [],
      "stateMutability": "nonpayable",
      "type": "function"
    },
    {
      "inputs": [
        {
          "internalType": "address",
          "name": "operator",
          "type": "address"
        },
        {
          "internalType": "bool",
          "name": "approved",
          "type": "bool"
        }
      ],
      "name": "setApprovalForAll",
      "outputs": [],
      "stateMutability": "nonpayable",
      "type": "function"
    },
    {
      "inputs": [
        {
          "internalType": "bytes4",
          "name": "interfaceId",
          "type": "bytes4"
        }
      ],
      "name": "supportsInterface",
      "outputs": [
        {
          "internalType": "bool",
          "name": "",
          "type": "bool"
        }
      ],
      "stateMutability": "view",
      "type": "function"
    },
    {
      "inputs": [],
      "name": "symbol",
      "outputs": [
        {
          "internalType": "string",
          "name": "",
          "type": "string"
        }
      ],
      "stateMutability": "view",
      "type": "function"
    },
    {
      "inputs": [
        {
          "internalType": "uint256",
          "name": "tokenId",
          "type": "uint256"
        }
      ],
      "name": "tokenURI",
      "outputs": [
        {
          "internalType": "string",
          "name": "",
          "type": "string"
        }
      ],
      "stateMutability": "view",
      "type": "function"
    },
    {
      "inputs": [],
      "name": "totalSupply",
      "outputs": [
        {
          "internalType": "uint256",
          "name": "",
          "type": "uint256"
        }
      ],
      "stateMutability": "view",
      "type": "function"
    },
    {
      "inputs": [
        {
          "internalType": "address",
          "name": "from",
          "type": "address"
        },
        {
          "internalType": "address",
          "name": "to",
          "type": "address"
        },
        {
          "internalType": "uint256",
          "name": "tokenId",
          "type": "uint256"
        }
      ],
      "name": "transferFrom",
      "outputs": [],
      "stateMutability": "nonpayable",
      "type": "function"
    }
  ],
  "bytecode": "0x608060405234801561001057600080fd5b506040518060400160405280601581526020017f56657269666961626c652043726564656e7469616c00000000000000000000008152506040518060400160405280600381526020017f5643440000000000000000000000000000000000000000000000000000000000815250816000908161008c9190610481565b50806001908161009c9190610481565b5050506100b26000801b336100c060201b60201c565b506001600881905550610553565b60006100d283836101be60201b60201c565b6101b35760016007600085815260200190815260200160002060000160008473ffffffffffffffffffffffffffffffffffffffff1673ffffffffffffffffffffffffffffffffffffffff16815260200190815260200160002060006101000a81548160ff02191690831515021790555061015061022960201b60201c565b73ffffffffffffffffffffffffffffffffffffffff168273ffffffffffffffffffffffffffffffffffffffff16847f2f8788117e7eff1d82e926ec794901d17c78024a50270940304540a733656f0d60405160405180910390a4600190506101b8565b600090505b92915050565b60006007600084815260200190815260200160002060000160008373ffffffffffffffffffffffffffffffffffffffff1673ffffffffffffffffffffffffffffffffffffffff16815260200190815260200160002060009054906101000a900460ff16905092915050565b600033905090565b600081519050919050565b7f4e487b7100000000000000000000000000000000000000000000000000000000600052604160045260246000fd5b7f4e487b7100000000000000000000000000000000000000000000000000000000600052602260045260246000fd5b600060028204905060018216806102b257607f821691505b6020821081036102c5576102c461026b565b5b50919050565b60008190508160005260206000209050919050565b60006020601f8301049050919050565b600082821b905092915050565b60006008830261032d7fffffffffffffffffffffffffffffffffffffffffffffffffffffffffffffffff826102f0565b61033786836102f0565b95508019841693508086168417925050509392505050565b6000819050919050565b6000819050919050565b600061037e6103796103748461034f565b610359565b61034f565b9050919050565b6000819050919050565b61039883610363565b6103ac6103a482610385565b8484546102fd565b825550505050565b600090565b6103c16103b4565b6103cc81848461038f565b505050565b5b818110156103f0576103e56000826103b9565b6001810190506103d2565b5050565b601f82111561043557610406816102cb565b61040f846102e0565b8101602085101561041e578190505b61043261042a856102e0565b8301826103d1565b50505b505050565b600082821c905092915050565b60006104586000198460080261043a565b1980831691505092915050565b60006104718383610447565b9150826002028217905092915050565b61048a82610231565b67ffffffffffffffff8111156104a3576104a261023c565b5b6104ad825461029a565b6104b88282856103f4565b600060209050601f8311600181146104eb57600084156104d9578287015190505b6104e38582610465565b86555061054b565b601f1984166104f9866102cb565b60005b82811015610521578489015182556001820191506020850194506020810190506104fc565b8683101561053e578489015161053a601f891682610447565b8355505b6001600288020188555050505b505050505050565b612e10806105626000396000f3fe608060405234801561001057600080fd5b50600436106101735760003560e01c80636352211e116100de578063a22cb46511610097578063caa0f92a11610071578063caa0f92a1461046c578063d53913931461048a578063d547741f146104a8578063e985e9c5146104c457610173565b8063a22cb46514610404578063b88d4fde14610420578063c87b56dd1461043c57610173565b80636352211e1461031c57806370a082311461034c57806390c7c49c1461037c57806391d148541461039857806395d89b41146103c8578063a217fddf146103e657610173565b806323b872dd1161013057806323b872dd1461024c578063248a9ca3146102685780632f2ff15d1461029857806336568abe146102b457806342842e0e146102d05780635ccc561e146102ec57610173565b806301ffc9a71461017857806306fdde03146101a8578063081812fc146101c6578063095ea7b3146101f657806318160ddd1461021257806320c5429b14610230575b600080fd5b610192600480360381019061018d91906120ac565b6104f4565b60405161019f91906120f4565b60405180910390f35b6101b0610506565b6040516101bd919061219f565b60405180910390f35b6101e060048036038101906101db91906121f7565b610598565b6040516101ed9190612265565b60405180910390f35b610210600480360381019061020b91906122ac565b6105b4565b005b61021a6105ca565b60405161022791906122fb565b60405180910390f35b61024a600480360381019061024591906121f7565b6105e0565b005b61026660048036038101906102619190612316565b610671565b005b610282600480360381019061027d919061239f565b610773565b60405161028f91906123db565b60405180910390f35b6102b260048036038101906102ad91906123f6565b610793565b005b6102ce60048036038101906102c991906123f6565b6107b5565b005b6102ea60048036038101906102e59190612316565b610830565b005b610306600480360381019061030191906121f7565b610850565b60405161031391906120f4565b60405180910390f35b610336600480360381019061033191906121f7565b61087a565b6040516103439190612265565b60405180910390f35b61036660048036038101906103619190612436565b61088c565b60405161037391906122fb565b60405180910390f35b61039660048036038101906103919190612598565b610946565b005b6103b260048036038101906103ad91906123f6565b6109f4565b6040516103bf91906120f4565b60405180910390f35b6103d0610a5f565b6040516103dd919061219f565b60405180910390f35b6103ee610af1565b6040516103fb91906123db565b60405180910390f35b61041e60048036038101906104199190612620565b610af8565b005b61043a60048036038101906104359190612701565b610b0e565b005b610456600480360381019061045191906121f7565b610b33565b604051610463919061219f565b60405180910390f35b610474610c46565b60405161048191906122fb565b60405180910390f35b610492610c50565b60405161049f91906123db565b60405180910390f35b6104c260048036038101906104bd91906123f6565b610c74565b005b6104de60048036038101906104d99190612784565b610c96565b6040516104eb91906120f4565b60405180910390f35b60006104ff82610d2a565b9050919050565b606060008054610515906127f3565b80601f0160208091040260200160405190810160405280929190818152602001828054610541906127f3565b801561058e5780601f106105635761010080835404028352916020019161058e565b820191906000526020600020905b81548152906001019060200180831161057157829003601f168201915b5050505050905090565b60006105a382610da4565b506105ad82610e2c565b9050919050565b6105c682826105c1610e69565b610e71565b5050565b600060016008546105db9190612853565b905090565b7f9f2df0fed2c77648de5860a4cc508cd0818c85b8b8a1ab4ceeef8d981c8956a661060a81610e83565b61061382610da4565b5060016009600084815260200190815260200160002060006101000a81548160ff021916908315150217905550817f0d47d5695004d2a4180ebb40037756439184993a0d1c6d4a8ff3a6aa9325607460405160405180910390a25050565b600073ffffffffffffffffffffffffffffffffffffffff168273ffffffffffffffffffffffffffffffffffffffff16036106e35760006040517f64a0ae920000000000000000000000000000000000000000000000000000000081526004016106da9190612265565b60405180910390fd5b60006106f783836106f2610e69565b610e97565b90508373ffffffffffffffffffffffffffffffffffffffff168173ffffffffffffffffffffffffffffffffffffffff161461076d578382826040517f64283d7b00000000000000000000000000000000000000000000000000000000815260040161076493929190612887565b60405180910390fd5b50505050565b600060076000838152602001908152602001600020600101549050919050565b61079c82610773565b6107a581610e83565b6107af8383610f64565b50505050565b6107bd610e69565b73ffffffffffffffffffffffffffffffffffffffff168173ffffffffffffffffffffffffffffffffffffffff1614610821576040517f6697b23200000000000000000000000000000000000000000000000000000000815260040160405180910390fd5b61082b8282611056565b505050565b61084b83838360405180602001604052806000815250610b0e565b505050565b60006009600083815260200190815260200160002060009054906101000a900460ff169050919050565b600061088582610da4565b9050919050565b60008073ffffffffffffffffffffffffffffffffffffffff168273ffffffffffffffffffffffffffffffffffffffff16036108ff5760006040517f89c62b640000000000000000000000000000000000000000000000000000000081526004016108f69190612265565b60405180910390fd5b600360008373ffffffffffffffffffffffffffffffffffffffff1673ffffffffffffffffffffffffffffffffffffffff168152602001908152602001600020549050919050565b7f9f2df0fed2c77648de5860a4cc508cd0818c85b8b8a1ab4ceeef8d981c8956a661097081610e83565b600060086000815480929190610985906128be565b9190505590506109958482611149565b61099f8184611167565b8373ffffffffffffffffffffffffffffffffffffffff16817ff03729c4e45d56313830b69839594a662bd953079e350899f22c95272f29567f856040516109e6919061219f565b60405180910390a350505050565b60006007600084815260200190815260200160002060000160008373ffffffffffffffffffffffffffffffffffffffff1673ffffffffffffffffffffffffffffffffffffffff16815260200190815260200160002060009054906101000a900460ff16905092915050565b606060018054610a6e906127f3565b80601f0160208091040260200160405190810160405280929190818152602001828054610a9a906127f3565b8015610ae75780601f10610abc57610100808354040283529160200191610ae7565b820191906000526020600020905b815481529060010190602001808311610aca57829003601f168201915b5050505050905090565b6000801b81565b610b0a610b03610e69565b83836111c3565b5050565b610b19848484610671565b610b2d610b24610e69565b85858585611332565b50505050565b6060610b3e82610da4565b506000600660008481526020019081526020016000208054610b5f906127f3565b80601f0160208091040260200160405190810160405280929190818152602001828054610b8b906127f3565b8015610bd85780601f10610bad57610100808354040283529160200191610bd8565b820191906000526020600020905b815481529060010190602001808311610bbb57829003601f168201915b505050505090506000610be96114e3565b90506000815103610bfe578192505050610c41565b600082511115610c33578082604051602001610c1b929190612942565b60405160208183030381529060405292505050610c41565b610c3c846114fa565b925050505b919050565b6000600854905090565b7f9f2df0fed2c77648de5860a4cc508cd0818c85b8b8a1ab4ceeef8d981c8956a681565b610c7d82610773565b610c8681610e83565b610c908383611056565b50505050565b6000600560008473ffffffffffffffffffffffffffffffffffffffff1673ffffffffffffffffffffffffffffffffffffffff16815260200190815260200160002060008373ffffffffffffffffffffffffffffffffffffffff1673ffffffffffffffffffffffffffffffffffffffff16815260200190815260200160002060009054906101000a900460ff16905092915050565b60007f7965db0b000000000000000000000000000000000000000000000000000000007bffffffffffffffffffffffffffffffffffffffffffffffffffffffff1916827bffffffffffffffffffffffffffffffffffffffffffffffffffffffff19161480610d9d5750610d9c82611563565b5b9050919050565b600080610db0836115c4565b9050600073ffffffffffffffffffffffffffffffffffffffff168173ffffffffffffffffffffffffffffffffffffffff1603610e2357826040517f7e273289000000000000000000000000000000000000000000000000000000008152600401610e1a91906122fb565b60405180910390fd5b80915050919050565b60006004600083815260200190815260200160002060009054906101000a900473ffffffffffffffffffffffffffffffffffffffff169050919050565b600033905090565b610e7e8383836001611601565b505050565b610e9481610e8f610e69565b6117c6565b50565b600080610ea3846115c4565b9050600073ffffffffffffffffffffffffffffffffffffffff168173ffffffffffffffffffffffffffffffffffffffff1614158015610f0f5750600073ffffffffffffffffffffffffffffffffffffffff168573ffffffffffffffffffffffffffffffffffffffff1614155b15610f4f576040517f08c379a0000000000000000000000000000000000000000000000000000000008152600401610f46906129d8565b60405180910390fd5b610f5a858585611817565b9150509392505050565b6000610f7083836109f4565b61104b5760016007600085815260200190815260200160002060000160008473ffffffffffffffffffffffffffffffffffffffff1673ffffffffffffffffffffffffffffffffffffffff16815260200190815260200160002060006101000a81548160ff021916908315150217905550610fe8610e69565b73ffffffffffffffffffffffffffffffffffffffff168273ffffffffffffffffffffffffffffffffffffffff16847f2f8788117e7eff1d82e926ec794901d17c78024a50270940304540a733656f0d60405160405180910390a460019050611050565b600090505b92915050565b600061106283836109f4565b1561113e5760006007600085815260200190815260200160002060000160008473ffffffffffffffffffffffffffffffffffffffff1673ffffffffffffffffffffffffffffffffffffffff16815260200190815260200160002060006101000a81548160ff0219169083151502179055506110db610e69565b73ffffffffffffffffffffffffffffffffffffffff168273ffffffffffffffffffffffffffffffffffffffff16847ff6391f5c32d9c69d2a47ea670b442974b53935d1edc7fd64eb21e047a839171b60405160405180910390a460019050611143565b600090505b92915050565b611163828260405180602001604052806000815250611a31565b5050565b806006600084815260200190815260200160002090816111879190612ba4565b507ff8e1a15aba9398e019f0b49df1a4fde98ee17ae345cb5f6b5e2c27f5033e8ce7826040516111b791906122fb565b60405180910390a15050565b600073ffffffffffffffffffffffffffffffffffffffff168273ffffffffffffffffffffffffffffffffffffffff160361123457816040517f5b08ba1800000000000000000000000000000000000000000000000000000000815260040161122b9190612265565b60405180910390fd5b80600560008573ffffffffffffffffffffffffffffffffffffffff1673ffffffffffffffffffffffffffffffffffffffff16815260200190815260200160002060008473ffffffffffffffffffffffffffffffffffffffff1673ffffffffffffffffffffffffffffffffffffffff16815260200190815260200160002060006101000a81548160ff0219169083151502179055508173ffffffffffffffffffffffffffffffffffffffff168373ffffffffffffffffffffffffffffffffffffffff167f17307eab39ab6107e8899845ad3d59bd9653f200f220920489ca2b5937696c318360405161132591906120f4565b60405180910390a3505050565b60008373ffffffffffffffffffffffffffffffffffffffff163b11156114dc578273ffffffffffffffffffffffffffffffffffffffff1663150b7a02868685856040518563ffffffff1660e01b81526004016113919493929190612ccb565b6020604051808303816000875af19250505080156113cd57506040513d601f19601f820116820180604052508101906113ca9190612d2c565b60015b611451573d80600081146113fd576040519150601f19603f3d011682016040523d82523d6000602084013e611402565b606091505b50600081510361144957836040517f64a0ae920000000000000000000000000000000000000000000000000000000081526004016114409190612265565b60405180910390fd5b805160208201fd5b63150b7a0260e01b7bffffffffffffffffffffffffffffffffffffffffffffffffffffffff1916817bffffffffffffffffffffffffffffffffffffffffffffffffffffffff1916146114da57836040517f64a0ae920000000000000000000000000000000000000000000000000000000081526004016114d19190612265565b60405180910390fd5b505b5050505050565b606060405180602001604052806000815250905090565b606061150582610da4565b5060006115106114e3565b90506000815111611530576040518060200160405280600081525061155b565b8061153a84611a55565b60405160200161154b929190612942565b6040516020818303038152906040525b915050919050565b6000634906490660e01b7bffffffffffffffffffffffffffffffffffffffffffffffffffffffff1916827bffffffffffffffffffffffffffffffffffffffffffffffffffffffff191614806115bd57506115bc82611b23565b5b9050919050565b60006002600083815260200190815260200160002060009054906101000a900473ffffffffffffffffffffffffffffffffffffffff169050919050565b808061163a5750600073ffffffffffffffffffffffffffffffffffffffff168273ffffffffffffffffffffffffffffffffffffffff1614155b1561176e57600061164a84610da4565b9050600073ffffffffffffffffffffffffffffffffffffffff168373ffffffffffffffffffffffffffffffffffffffff16141580156116b557508273ffffffffffffffffffffffffffffffffffffffff168173ffffffffffffffffffffffffffffffffffffffff1614155b80156116c857506116c68184610c96565b155b1561170a57826040517fa9fbf51f0000000000000000000000000000000000000000000000000000000081526004016117019190612265565b60405180910390fd5b811561176c57838573ffffffffffffffffffffffffffffffffffffffff168273ffffffffffffffffffffffffffffffffffffffff167f8c5be1e5ebec7d5bd14f71427d1e84f3dd0314c0f7b2291e5b200ac8c7c3b92560405160405180910390a45b505b836004600085815260200190815260200160002060006101000a81548173ffffffffffffffffffffffffffffffffffffffff021916908373ffffffffffffffffffffffffffffffffffffffff16021790555050505050565b6117d082826109f4565b6118135780826040517fe2517d3f00000000000000000000000000000000000000000000000000000000815260040161180a929190612d59565b60405180910390fd5b5050565b600080611823846115c4565b9050600073ffffffffffffffffffffffffffffffffffffffff168373ffffffffffffffffffffffffffffffffffffffff161461186557611864818486611c05565b5b600073ffffffffffffffffffffffffffffffffffffffff168173ffffffffffffffffffffffffffffffffffffffff16146118f6576118a7600085600080611601565b6001600360008373ffffffffffffffffffffffffffffffffffffffff1673ffffffffffffffffffffffffffffffffffffffff168152602001908152602001600020600082825403925050819055505b600073ffffffffffffffffffffffffffffffffffffffff168573ffffffffffffffffffffffffffffffffffffffff1614611979576001600360008773ffffffffffffffffffffffffffffffffffffffff1673ffffffffffffffffffffffffffffffffffffffff168152602001908152602001600020600082825401925050819055505b846002600086815260200190815260200160002060006101000a81548173ffffffffffffffffffffffffffffffffffffffff021916908373ffffffffffffffffffffffffffffffffffffffff160217905550838573ffffffffffffffffffffffffffffffffffffffff168273ffffffffffffffffffffffffffffffffffffffff167fddf252ad1be2c89b69c2b068fc378daa952ba7f163c4a11628f55a4df523b3ef60405160405180910390a4809150509392505050565b611a3b8383611cc9565b611a50611a46610e69565b6000858585611332565b505050565b606060006001611a6484611dc2565b01905060008167ffffffffffffffff811115611a8357611a8261246d565b5b6040519080825280601f01601f191660200182016040528015611ab55781602001600182028036833780820191505090505b509050600082602083010190505b600115611b18578080600190039150507f3031323334353637383961626364656600000000000000000000000000000000600a86061a8153600a8581611b0c57611b0b612d82565b5b04945060008503611ac3575b819350505050919050565b60007f80ac58cd000000000000000000000000000000000000000000000000000000007bffffffffffffffffffffffffffffffffffffffffffffffffffffffff1916827bffffffffffffffffffffffffffffffffffffffffffffffffffffffff19161480611bee57507f5b5e139f000000000000000000000000000000000000000000000000000000007bffffffffffffffffffffffffffffffffffffffffffffffffffffffff1916827bffffffffffffffffffffffffffffffffffffffffffffffffffffffff1916145b80611bfe5750611bfd82611f15565b5b9050919050565b611c10838383611f7f565b611cc457600073ffffffffffffffffffffffffffffffffffffffff168373ffffffffffffffffffffffffffffffffffffffff1603611c8557806040517f7e273289000000000000000000000000000000000000000000000000000000008152600401611c7c91906122fb565b60405180910390fd5b81816040517f177e802f000000000000000000000000000000000000000000000000000000008152600401611cbb929190612db1565b60405180910390fd5b505050565b600073ffffffffffffffffffffffffffffffffffffffff168273ffffffffffffffffffffffffffffffffffffffff1603611d3b5760006040517f64a0ae92000000000000000000000000000000000000000000000000000000008152600401611d329190612265565b60405180910390fd5b6000611d4983836000610e97565b9050600073ffffffffffffffffffffffffffffffffffffffff168173ffffffffffffffffffffffffffffffffffffffff1614611dbd5760006040517f73c6ac6e000000000000000000000000000000000000000000000000000000008152600401611db49190612265565b60405180910390fd5b505050565b600080600090507a184f03e93ff9f4daa797ed6e38ed64bf6a1f0100000000000000008310611e20577a184f03e93ff9f4daa797ed6e38ed64bf6a1f0100000000000000008381611e1657611e15612d82565b5b0492506040810190505b6d04ee2d6d415b85acef81000000008310611e5d576d04ee2d6d415b85acef81000000008381611e5357611e52612d82565b5b0492506020810190505b662386f26fc100008310611e8c57662386f26fc100008381611e8257611e81612d82565b5b0492506010810190505b6305f5e1008310611eb5576305f5e1008381611eab57611eaa612d82565b5b0492506008810190505b6127108310611eda576127108381611ed057611ecf612d82565b5b0492506004810190505b60648310611efd5760648381611ef357611ef2612d82565b5b0492506002810190505b600a8310611f0c576001810190505b80915050919050565b60007f01ffc9a7000000000000000000000000000000000000000000000000000000007bffffffffffffffffffffffffffffffffffffffffffffffffffffffff1916827bffffffffffffffffffffffffffffffffffffffffffffffffffffffff1916149050919050565b60008073ffffffffffffffffffffffffffffffffffffffff168373ffffffffffffffffffffffffffffffffffffffff161415801561203757508273ffffffffffffffffffffffffffffffffffffffff168473ffffffffffffffffffffffffffffffffffffffff161480611ff85750611ff78484610c96565b5b8061203657508273ffffffffffffffffffffffffffffffffffffffff1661201e83610e2c565b73ffffffffffffffffffffffffffffffffffffffff16145b5b90509392505050565b6000604051905090565b600080fd5b600080fd5b60007fffffffff0000000000000000000000000000000000000000000000000000000082169050919050565b61208981612054565b811461209457600080fd5b50565b6000813590506120a681612080565b92915050565b6000602082840312156120c2576120c161204a565b5b60006120d084828501612097565b91505092915050565b60008115159050919050565b6120ee816120d9565b82525050565b600060208201905061210960008301846120e5565b92915050565b600081519050919050565b600082825260208201905092915050565b60005b8381101561214957808201518184015260208101905061212e565b60008484015250505050565b6000601f19601f8301169050919050565b60006121718261210f565b61217b818561211a565b935061218b81856020860161212b565b61219481612155565b840191505092915050565b600060208201905081810360008301526121b98184612166565b905092915050565b6000819050919050565b6121d4816121c1565b81146121df57600080fd5b50565b6000813590506121f1816121cb565b92915050565b60006020828403121561220d5761220c61204a565b5b600061221b848285016121e2565b91505092915050565b600073ffffffffffffffffffffffffffffffffffffffff82169050919050565b600061224f82612224565b9050919050565b61225f81612244565b82525050565b600060208201905061227a6000830184612256565b92915050565b61228981612244565b811461229457600080fd5b50565b6000813590506122a681612280565b92915050565b600080604083850312156122c3576122c261204a565b5b60006122d185828601612297565b92505060206122e2858286016121e2565b9150509250929050565b6122f5816121c1565b82525050565b600060208201905061231060008301846122ec565b92915050565b60008060006060848603121561232f5761232e61204a565b5b600061233d86828701612297565b935050602061234e86828701612297565b925050604061235f868287016121e2565b9150509250925092565b6000819050919050565b61237c81612369565b811461238757600080fd5b50565b60008135905061239981612373565b92915050565b6000602082840312156123b5576123b461204a565b5b60006123c38482850161238a565b91505092915050565b6123d581612369565b82525050565b60006020820190506123f060008301846123cc565b92915050565b6000806040838503121561240d5761240c61204a565b5b600061241b8582860161238a565b925050602061242c85828601612297565b9150509250929050565b60006020828403121561244c5761244b61204a565b5b600061245a84828501612297565b91505092915050565b600080fd5b600080fd5b7f4e487b7100000000000000000000000000000000000000000000000000000000600052604160045260246000fd5b6124a582612155565b810181811067ffffffffffffffff821117156124c4576124c361246d565b5b80604052505050565b60006124d7612040565b90506124e3828261249c565b919050565b600067ffffffffffffffff8211156125035761250261246d565b5b61250c82612155565b9050602081019050919050565b82818337600083830152505050565b600061253b612536846124e8565b6124cd565b90508281526020810184848401111561255757612556612468565b5b612562848285612519565b509392505050565b600082601f83011261257f5761257e612463565b5b813561258f848260208601612528565b91505092915050565b600080604083850312156125af576125ae61204a565b5b60006125bd85828601612297565b925050602083013567ffffffffffffffff8111156125de576125dd61204f565b5b6125ea8582860161256a565b9150509250929050565b6125fd816120d9565b811461260857600080fd5b50565b60008135905061261a816125f4565b92915050565b600080604083850312156126375761263661204a565b5b600061264585828601612297565b92505060206126568582860161260b565b9150509250929050565b600067ffffffffffffffff82111561267b5761267a61246d565b5b61268482612155565b9050602081019050919050565b60006126a461269f84612660565b6124cd565b9050828152602081018484840111156126c0576126bf612468565b5b6126cb848285612519565b509392505050565b600082601f8301126126e8576126e7612463565b5b81356126f8848260208601612691565b91505092915050565b6000806000806080858703121561271b5761271a61204a565b5b600061272987828801612297565b945050602061273a87828801612297565b935050604061274b878288016121e2565b925050606085013567ffffffffffffffff81111561276c5761276b61204f565b5b612778878288016126d3565b91505092959194509250565b6000806040838503121561279b5761279a61204a565b5b60006127a985828601612297565b92505060206127ba85828601612297565b9150509250929050565b7f4e487b7100000000000000000000000000000000000000000000000000000000600052602260045260246000fd5b6000600282049050600182168061280b57607f821691505b60208210810361281e5761281d6127c4565b5b50919050565b7f4e487b7100000000000000000000000000000000000000000000000000000000600052601160045260246000fd5b600061285e826121c1565b9150612869836121c1565b925082820390508181111561288157612880612824565b5b92915050565b600060608201905061289c6000830186612256565b6128a960208301856122ec565b6128b66040830184612256565b949350505050565b60006128c9826121c1565b91507fffffffffffffffffffffffffffffffffffffffffffffffffffffffffffffffff82036128fb576128fa612824565b5b600182019050919050565b600081905092915050565b600061291c8261210f565b6129268185612906565b935061293681856020860161212b565b80840191505092915050565b600061294e8285612911565b915061295a8284612911565b91508190509392505050565b7f536f756c626f756e643a20546f6b656e7320617265206e6f6e2d7472616e736660008201527f657261626c650000000000000000000000000000000000000000000000000000602082015250565b60006129c260268361211a565b91506129cd82612966565b604082019050919050565b600060208201905081810360008301526129f1816129b5565b9050919050565b60008190508160005260206000209050919050565b60006020601f8301049050919050565b600082821b905092915050565b600060088302612a5a7fffffffffffffffffffffffffffffffffffffffffffffffffffffffffffffffff82612a1d565b612a648683612a1d565b95508019841693508086168417925050509392505050565b6000819050919050565b6000612aa1612a9c612a97846121c1565b612a7c565b6121c1565b9050919050565b6000819050919050565b612abb83612a86565b612acf612ac782612aa8565b848454612a2a565b825550505050565b600090565b612ae4612ad7565b612aef818484612ab2565b505050565b5b81811015612b1357612b08600082612adc565b600181019050612af5565b5050565b601f821115612b5857612b29816129f8565b612b3284612a0d565b81016020851015612b41578190505b612b55612b4d85612a0d565b830182612af4565b50505b505050565b600082821c905092915050565b6000612b7b60001984600802612b5d565b1980831691505092915050565b6000612b948383612b6a565b9150826002028217905092915050565b612bad8261210f565b67ffffffffffffffff811115612bc657612bc561246d565b5b612bd082546127f3565b612bdb828285612b17565b600060209050601f831160018114612c0e5760008415612bfc578287015190505b612c068582612b88565b865550612c6e565b601f198416612c1c866129f8565b60005b82811015612c4457848901518255600182019150602085019450602081019050612c1f565b86831015612c615784890151612c5d601f891682612b6a565b8355505b6001600288020188555050505b505050505050565b600081519050919050565b600082825260208201905092915050565b6000612c9d82612c76565b612ca78185612c81565b9350612cb781856020860161212b565b612cc081612155565b840191505092915050565b6000608082019050612ce06000830187612256565b612ced6020830186612256565b612cfa60408301856122ec565b8181036060830152612d0c8184612c92565b905095945050505050565b600081519050612d2681612080565b92915050565b600060208284031215612d4257612d4161204a565b5b6000612d5084828501612d17565b91505092915050565b6000604082019050612d6e6000830185612256565b612d7b60208301846123cc565b9392505050565b7f4e487b7100000000000000000000000000000000000000000000000000000000600052601260045260246000fd5b6000604082019050612dc66000830185612256565b612dd360208301846122ec565b939250505056fea2646970667358221220355429bdb173349da02e65b6bd86f79afce4feb52a22ed8fc8611c39ec0f825b64736f6c634300081c0033",
  "linkReferences": {},
  "deployedLinkReferences": {}
}